:1000000012C019C018C017C016C015C014C013C044
:1000100012C011C010C00FC00EC00DC00CC00BC06C
:100020000AC009C008C011241FBECFE5D4E0DEBF5E
:10003000CDBF02D07AC0E4CF81B38F6081BB84B3DF
:10004000836684BB85B315BA82B312BA85B3806464
:1000500085BB2FE38DE093E0215080409040E1F795
:1000600000C0000085B315BA82B3816082BB2FE364
:100070008DE093E0215080409040E1F700C0000007
:1000800082B312BA82B3826082BB2FE38DE093E029
:10009000215080409040E1F700C0000082B312BAC6
:1000A00082B3846082BB2FE38DE093E021508040D7
:1000B0009040E1F700C0000082B312BA82B38860BA
:1000C00082BB2FE38DE093E0215080409040E1F728
:1000D00000C0000082B312BA85B3816085BB2FE3F4
:1000E0008DE093E0215080409040E1F700C0000097
:1000F00085B315BA85B3826085BB2FE38DE093E0AD
:10010000215080409040E1F700C0000085B315BA4F
:1001100085B3806285BB2FE38DE093E02150804062
:0E0120009040E1F700C000008DCFF894FFCFB3
:00000001FF
